{
  "_format": "hh-sol-artifact-1",
  "contractName": "NFTPresaleManager",
  "sourceName": "contracts/NFTPresaleManager.sol",
  "abi": [
    {
      "inputs": [
        {
          "internalType": "address",
          "name": "_nftContract",
          "type": "address"
        },
        {
          "internalType": "uint256",
          "name": "_maxSupply",
          "type": "uint256"
        },
        {
          "internalType": "uint256",
          "name": "_price",
          "type": "uint256"
        },
        {
          "internalType": "uint256",
          "name": "_presaleStart",
          "type": "uint256"
        },
        {
          "internalType": "uint256",
          "name": "_presaleEnd",
          "type": "uint256"
        },
        {
          "internalType": "address",
          "name": "_paymentToken",
          "type": "address"
        }
      ],
      "stateMutability": "nonpayable",
      "type": "constructor"
    },
    {
      "anonymous": false,
      "inputs": [
        {
          "indexed": true,
          "internalType": "address",
          "name": "buyer",
          "type": "address"
        },
        {
          "indexed": false,
          "internalType": "uint256",
          "name": "tokenId",
          "type": "uint256"
        }
      ],
      "name": "NFTPurchased",
      "type": "event"
    },
    {
      "anonymous": false,
      "inputs": [
        {
          "indexed": true,
          "internalType": "address",
          "name": "previousOwner",
          "type": "address"
        },
        {
          "indexed": true,
          "internalType": "address",
          "name": "newOwner",
          "type": "address"
        }
      ],
      "name": "OwnershipTransferred",
      "type": "event"
    },
    {
      "anonymous": false,
      "inputs": [
        {
          "indexed": true,
          "internalType": "address",
          "name": "token",
          "type": "address"
        }
      ],
      "name": "PaymentTokenUpdated",
      "type": "event"
    },
    {
      "anonymous": false,
      "inputs": [
        {
          "indexed": false,
          "internalType": "uint256",
          "name": "start",
          "type": "uint256"
        },
        {
          "indexed": false,
          "internalType": "uint256",
          "name": "end",
          "type": "uint256"
        }
      ],
      "name": "PresalePeriodUpdated",
      "type": "event"
    },
    {
      "anonymous": false,
      "inputs": [
        {
          "indexed": true,
          "internalType": "address",
          "name": "account",
          "type": "address"
        }
      ],
      "name": "RemovedFromWhitelist",
      "type": "event"
    },
    {
      "anonymous": false,
      "inputs": [
        {
          "indexed": true,
          "internalType": "address",
          "name": "account",
          "type": "address"
        }
      ],
      "name": "Whitelisted",
      "type": "event"
    },
    {
      "inputs": [
        {
          "internalType": "address",
          "name": "account",
          "type": "address"
        }
      ],
      "name": "addToWhitelist",
      "outputs": [],
      "stateMutability": "nonpayable",
      "type": "function"
    },
    {
      "inputs": [
        {
          "internalType": "address[]",
          "name": "accounts",
          "type": "address[]"
        }
      ],
      "name": "addToWhitelistBatch",
      "outputs": [],
      "stateMutability": "nonpayable",
      "type": "function"
    },
    {
      "inputs": [],
      "name": "buyNFT",
      "outputs": [],
      "stateMutability": "nonpayable",
      "type": "function"
    },
    {
      "inputs": [],
      "name": "maxSupply",
      "outputs": [
        {
          "internalType": "uint256",
          "name": "",
          "type": "uint256"
        }
      ],
      "stateMutability": "view",
      "type": "function"
    },
    {
      "inputs": [],
      "name": "nftContract",
      "outputs": [
        {
          "internalType": "contract IERC721Mintable",
          "name": "",
          "type": "address"
        }
      ],
      "stateMutability": "view",
      "type": "function"
    },
    {
      "inputs": [],
      "name": "owner",
      "outputs": [
        {
          "internalType": "address",
          "name": "",
          "type": "address"
        }
      ],
      "stateMutability": "view",
      "type": "function"
    },
    {
      "inputs": [],
      "name": "paymentToken",
      "outputs": [
        {
          "internalType": "contract IERC20",
          "name": "",
          "type": "address"
        }
      ],
      "stateMutability": "view",
      "type": "function"
    },
    {
      "inputs": [],
      "name": "presaleEnd",
      "outputs": [
        {
          "internalType": "uint256",
          "name": "",
          "type": "uint256"
        }
      ],
      "stateMutability": "view",
      "type": "function"
    },
    {
      "inputs": [],
      "name": "presaleStart",
      "outputs": [
        {
          "internalType": "uint256",
          "name": "",
          "type": "uint256"
        }
      ],
      "stateMutability": "view",
      "type": "function"
    },
    {
      "inputs": [],
      "name": "price",
      "outputs": [
        {
          "internalType": "uint256",
          "name": "",
          "type": "uint256"
        }
      ],
      "stateMutability": "view",
      "type": "function"
    },
    {
      "inputs": [
        {
          "internalType": "address",
          "name": "account",
          "type": "address"
        }
      ],
      "name": "removeFromWhitelist",
      "outputs": [],
      "stateMutability": "nonpayable",
      "type": "function"
    },
    {
      "inputs": [],
      "name": "renounceOwnership",
      "outputs": [],
      "stateMutability": "nonpayable",
      "type": "function"
    },
    {
      "inputs": [
        {
          "internalType": "address",
          "name": "_paymentToken",
          "type": "address"
        }
      ],
      "name": "setPaymentToken",
      "outputs": [],
      "stateMutability": "nonpayable",
      "type": "function"
    },
    {
      "inputs": [],
      "name": "totalMinted",
      "outputs": [
        {
          "internalType": "uint256",
          "name": "",
          "type": "uint256"
        }
      ],
      "stateMutability": "view",
      "type": "function"
    },
    {
      "inputs": [
        {
          "internalType": "address",
          "name": "newOwner",
          "type": "address"
        }
      ],
      "name": "transferOwnership",
      "outputs": [],
      "stateMutability": "nonpayable",
      "type": "function"
    },
    {
      "inputs": [
        {
          "internalType": "uint256",
          "name": "_start",
          "type": "uint256"
        },
        {
          "internalType": "uint256",
          "name": "_end",
          "type": "uint256"
        }
      ],
      "name": "updatePresalePeriod",
      "outputs": [],
      "stateMutability": "nonpayable",
      "type": "function"
    },
    {
      "inputs": [
        {
          "internalType": "address",
          "name": "",
          "type": "address"
        }
      ],
      "name": "whitelisted",
      "outputs": [
        {
          "internalType": "bool",
          "name": "",
          "type": "bool"
        }
      ],
      "stateMutability": "view",
      "type": "function"
    },
    {
      "inputs": [],
      "name": "withdrawFunds",
      "outputs": [],
      "stateMutability": "nonpayable",
      "type": "function"
    }
  ],
  "bytecode": "0x608060405234801561001057600080fd5b50604051611105380380611105833981810160405260c081101561003357600080fd5b508051602082015160408301516060840151608085015160a09095015193949293919290916000610062610220565b600080546001600160a01b0319166001600160a01b0383169081178255604051929350917f8be0079c531659141344cd1fd0a4f28419497f9722a3daafe3b4186f6b6457e0908290a350818310610100576040805162461bcd60e51b815260206004820152601860248201527f5374617274206d757374206265206265666f726520656e640000000000000000604482015290519081900360640190fd5b61011c866001600160a01b031661022460201b610e461760201c565b61016d576040805162461bcd60e51b815260206004820152601c60248201527f496e76616c6964204e465420636f6e7472616374206164647265737300000000604482015290519081900360640190fd5b610189816001600160a01b031661022460201b610e461760201c565b6101da576040805162461bcd60e51b815260206004820152601d60248201527f496e76616c6964207061796d656e7420746f6b656e2061646472657373000000604482015290519081900360640190fd5b600180546001600160a01b039788166001600160a01b0319918216179091556003959095556004939093556006919091556007556002805491909316911617905561022a565b3390565b3b151590565b610ecc806102396000396000f3fe608060405234801561001057600080fd5b50600436106101165760003560e01c8063a2309ff8116100a2578063d5abeb0111610071578063d5abeb0114610272578063d936547e1461027a578063de8801e5146102b4578063e43252d7146102bc578063f2fde38b146102e257610116565b8063a2309ff8146101ea578063a6177139146101f2578063bff29cee14610262578063d56d229d1461026a57610116565b80636a326ab1116100e95780636a326ab114610186578063715018a6146101ac5780638ab1d681146101b45780638da5cb5b146101da578063a035b1fe146101e257610116565b8063229f3e291461011b57806324600fc3146101355780632485b0f01461013f5780633013ce2914610162575b600080fd5b610123610308565b60408051918252519081900360200190f35b61013d61030e565b005b61013d6004803603604081101561015557600080fd5b50803590602001356104c1565b61016a6105c0565b604080516001600160a01b039092168252519081900360200190f35b61013d6004803603602081101561019c57600080fd5b50356001600160a01b03166105cf565b61013d6106de565b61013d600480360360208110156101ca57600080fd5b50356001600160a01b031661078a565b61016a610835565b610123610844565b61012361084a565b61013d6004803603602081101561020857600080fd5b81019060208101813564010000000081111561022357600080fd5b82018360208201111561023557600080fd5b8035906020019184602083028401116401000000008311171561025757600080fd5b509092509050610850565b61013d61096f565b61016a610c66565b610123610c75565b6102a06004803603602081101561029057600080fd5b50356001600160a01b0316610c7b565b604080519115158252519081900360200190f35b610123610c90565b61013d600480360360208110156102d257600080fd5b50356001600160a01b0316610c96565b61013d600480360360208110156102f857600080fd5b50356001600160a01b0316610d44565b60075481565b610316610e4c565b6001600160a01b0316610327610835565b6001600160a01b031614610370576040805162461bcd60e51b81526020600482018190526024820152600080516020610e77833981519152604482015290519081900360640190fd5b600254604080516370a0823160e01b815230600482015290516000926001600160a01b0316916370a08231916024808301926020929190829003018186803b1580156103bb57600080fd5b505afa1580156103cf573d6000803e3d6000fd5b505050506040513d60208110156103e557600080fd5b5051905080610432576040805162461bcd60e51b81526020600482015260146024820152734e6f2066756e647320746f20776974686472617760601b604482015290519081900360640190fd5b6002546001600160a01b031663a9059cbb61044b610835565b836040518363ffffffff1660e01b815260040180836001600160a01b0316815260200182815260200192505050602060405180830381600087803b15801561049257600080fd5b505af11580156104a6573d6000803e3d6000fd5b505050506040513d60208110156104bc57600080fd5b505050565b6104c9610e4c565b6001600160a01b03166104da610835565b6001600160a01b031614610523576040805162461bcd60e51b81526020600482018190526024820152600080516020610e77833981519152604482015290519081900360640190fd5b808210610577576040805162461bcd60e51b815260206004820152601860248201527f5374617274206d757374206265206265666f726520656e640000000000000000604482015290519081900360640190fd5b60068290556007819055604080518381526020810183905281517fddc98382f0b83f68c37c3dd3fdc739da3e76e497e2306c9b57daa04ec8d2a4a3929181900390910190a15050565b6002546001600160a01b031681565b6105d7610e4c565b6001600160a01b03166105e8610835565b6001600160a01b031614610631576040805162461bcd60e51b81526020600482018190526024820152600080516020610e77833981519152604482015290519081900360640190fd5b610643816001600160a01b0316610e46565b610694576040805162461bcd60e51b815260206004820152601d60248201527f496e76616c6964207061796d656e7420746f6b656e2061646472657373000000604482015290519081900360640190fd5b600280546001600160a01b0319166001600160a01b0383169081179091556040517fbd4032c1c91da2791730ea1bbc82c6b6f857da7c0a8318143d19ef74e62cd91390600090a250565b6106e6610e4c565b6001600160a01b03166106f7610835565b6001600160a01b031614610740576040805162461bcd60e51b81526020600482018190526024820152600080516020610e77833981519152604482015290519081900360640190fd5b600080546040516001600160a01b03909116907f8be0079c531659141344cd1fd0a4f28419497f9722a3daafe3b4186f6b6457e0908390a3600080546001600160a01b0319169055565b610792610e4c565b6001600160a01b03166107a3610835565b6001600160a01b0316146107ec576040805162461bcd60e51b81526020600482018190526024820152600080516020610e77833981519152604482015290519081900360640190fd5b6001600160a01b038116600081815260086020526040808220805460ff19169055517fcdd2e9b91a56913d370075169cefa1602ba36be5301664f752192bb1709df7579190a250565b6000546001600160a01b031690565b60045481565b60055481565b610858610e4c565b6001600160a01b0316610869610835565b6001600160a01b0316146108b2576040805162461bcd60e51b81526020600482018190526024820152600080516020610e77833981519152604482015290519081900360640190fd5b60005b818110156104bc576001600860008585858181106108cf57fe5b905060200201356001600160a01b03166001600160a01b03166001600160a01b0316815260200190815260200160002060006101000a81548160ff02191690831515021790555082828281811061092257fe5b905060200201356001600160a01b03166001600160a01b03167faab7954e9d246b167ef88aeddad35209ca2489d95a8aeb59e288d9b19fae5a5460405160405180910390a26001016108b5565b6002546001600160a01b03166109c4576040805162461bcd60e51b815260206004820152601560248201527414185e5b595b9d081d1bdad95b881b9bdd081cd95d605a1b604482015290519081900360640190fd5b6001546001600160a01b0316610a18576040805162461bcd60e51b81526020600482015260146024820152731391950818dbdb9d1c9858dd081b9bdd081cd95d60621b604482015290519081900360640190fd5b60035460055410610a65576040805162461bcd60e51b815260206004820152601260248201527113585e081cdd5c1c1b1e481c995858da195960721b604482015290519081900360640190fd5b6006544210158015610a7957506007544211155b15610ae2573360009081526008602052604090205460ff16610ae2576040805162461bcd60e51b815260206004820152601e60248201527f4e6f742077686974656c697374656420647572696e672070726573616c650000604482015290519081900360640190fd5b60025460048054604080516323b872dd60e01b815233938101939093523060248401526044830191909152516001600160a01b03909216916323b872dd916064808201926020929091908290030181600087803b158015610b4257600080fd5b505af1158015610b56573d6000803e3d6000fd5b505050506040513d6020811015610b6c57600080fd5b5051610bb7576040805162461bcd60e51b8152602060048201526015602482015274151bdad95b881d1c985b9cd9995c8819985a5b1959605a1b604482015290519081900360640190fd5b6005805460019081019182905554604080516340c10f1960e01b81523360048201526024810184905290516001600160a01b03909216916340c10f199160448082019260009290919082900301818387803b158015610c1557600080fd5b505af1158015610c29573d6000803e3d6000fd5b50506040805184815290513393507f7f8aed29394d49180b299699236f142fbd3a78f6d1464929dd17e87b73ebc8d292509081900360200190a250565b6001546001600160a01b031681565b60035481565b60086020526000908152604090205460ff1681565b60065481565b610c9e610e4c565b6001600160a01b0316610caf610835565b6001600160a01b031614610cf8576040805162461bcd60e51b81526020600482018190526024820152600080516020610e77833981519152604482015290519081900360640190fd5b6001600160a01b038116600081815260086020526040808220805460ff19166001179055517faab7954e9d246b167ef88aeddad35209ca2489d95a8aeb59e288d9b19fae5a549190a250565b610d4c610e4c565b6001600160a01b0316610d5d610835565b6001600160a01b031614610da6576040805162461bcd60e51b81526020600482018190526024820152600080516020610e77833981519152604482015290519081900360640190fd5b6001600160a01b038116610deb5760405162461bcd60e51b8152600401808060200182810382526026815260200180610e516026913960400191505060405180910390fd5b600080546040516001600160a01b03808516939216917f8be0079c531659141344cd1fd0a4f28419497f9722a3daafe3b4186f6b6457e091a3600080546001600160a01b0319166001600160a01b0392909216919091179055565b3b151590565b339056fe4f776e61626c653a206e6577206f776e657220697320746865207a65726f20616464726573734f776e61626c653a2063616c6c6572206973206e6f7420746865206f776e6572a2646970667358221220296320ec161b538b9e8403f15570016fc55dc6ea2e9be80a0f41f49e2c1135ee64736f6c63430007060033",
  "linkReferences": {},
  "deployedLinkReferences": {}
}