{
  "_format": "hh-sol-artifact-1",
  "contractName": "NFTPresaleManager",
  "sourceName": "contracts/NFTPresaleManager.sol",
  "abi": [
    {
      "inputs": [
        {
          "internalType": "address",
          "name": "_nftContract",
          "type": "address"
        },
        {
          "internalType": "uint256",
          "name": "_maxNFTPerWallet",
          "type": "uint256"
        },
        {
          "internalType": "address",
          "name": "_adminAddress",
          "type": "address"
        }
      ],
      "stateMutability": "nonpayable",
      "type": "constructor"
    },
    {
      "inputs": [],
      "name": "InvalidShortString",
      "type": "error"
    },
    {
      "inputs": [
        {
          "internalType": "string",
          "name": "str",
          "type": "string"
        }
      ],
      "name": "StringTooLong",
      "type": "error"
    },
    {
      "anonymous": false,
      "inputs": [],
      "name": "EIP712DomainChanged",
      "type": "event"
    },
    {
      "anonymous": false,
      "inputs": [
        {
          "indexed": false,
          "internalType": "uint256",
          "name": "roundId",
          "type": "uint256"
        },
        {
          "indexed": false,
          "internalType": "uint256",
          "name": "maxNFTPerWallet",
          "type": "uint256"
        }
      ],
      "name": "MaxNFTPerWalletUpdated",
      "type": "event"
    },
    {
      "anonymous": false,
      "inputs": [
        {
          "indexed": true,
          "internalType": "address",
          "name": "buyer",
          "type": "address"
        },
        {
          "indexed": false,
          "internalType": "uint256",
          "name": "tokenId",
          "type": "uint256"
        }
      ],
      "name": "NFTPurchased",
      "type": "event"
    },
    {
      "anonymous": false,
      "inputs": [
        {
          "indexed": true,
          "internalType": "address",
          "name": "previousOwner",
          "type": "address"
        },
        {
          "indexed": true,
          "internalType": "address",
          "name": "newOwner",
          "type": "address"
        }
      ],
      "name": "OwnershipTransferred",
      "type": "event"
    },
    {
      "anonymous": false,
      "inputs": [
        {
          "indexed": true,
          "internalType": "address",
          "name": "token",
          "type": "address"
        },
        {
          "indexed": false,
          "internalType": "bool",
          "name": "accepted",
          "type": "bool"
        }
      ],
      "name": "PaymentTokenUpdated",
      "type": "event"
    },
    {
      "anonymous": false,
      "inputs": [
        {
          "indexed": true,
          "internalType": "address",
          "name": "referrer",
          "type": "address"
        },
        {
          "indexed": true,
          "internalType": "address",
          "name": "buyer",
          "type": "address"
        },
        {
          "indexed": false,
          "internalType": "uint256",
          "name": "amount",
          "type": "uint256"
        }
      ],
      "name": "ReferralCommissionPaid",
      "type": "event"
    },
    {
      "anonymous": false,
      "inputs": [
        {
          "indexed": true,
          "internalType": "address",
          "name": "account",
          "type": "address"
        }
      ],
      "name": "RemovedFromWhitelist",
      "type": "event"
    },
    {
      "anonymous": false,
      "inputs": [
        {
          "indexed": true,
          "internalType": "uint256",
          "name": "roundId",
          "type": "uint256"
        }
      ],
      "name": "SaleRoundCreated",
      "type": "event"
    },
    {
      "anonymous": false,
      "inputs": [
        {
          "indexed": true,
          "internalType": "address",
          "name": "account",
          "type": "address"
        }
      ],
      "name": "Whitelisted",
      "type": "event"
    },
    {
      "inputs": [],
      "name": "REFERRAL_COMMISSION",
      "outputs": [
        {
          "internalType": "uint256",
          "name": "",
          "type": "uint256"
        }
      ],
      "stateMutability": "view",
      "type": "function"
    },
    {
      "inputs": [
        {
          "internalType": "address",
          "name": "",
          "type": "address"
        }
      ],
      "name": "acceptedPaymentTokens",
      "outputs": [
        {
          "internalType": "bool",
          "name": "",
          "type": "bool"
        }
      ],
      "stateMutability": "view",
      "type": "function"
    },
    {
      "inputs": [
        {
          "internalType": "address",
          "name": "account",
          "type": "address"
        }
      ],
      "name": "addToWhitelist",
      "outputs": [],
      "stateMutability": "nonpayable",
      "type": "function"
    },
    {
      "inputs": [
        {
          "internalType": "address[]",
          "name": "accounts",
          "type": "address[]"
        }
      ],
      "name": "addToWhitelistBatch",
      "outputs": [],
      "stateMutability": "nonpayable",
      "type": "function"
    },
    {
      "inputs": [],
      "name": "adminAddress",
      "outputs": [
        {
          "internalType": "address",
          "name": "",
          "type": "address"
        }
      ],
      "stateMutability": "view",
      "type": "function"
    },
    {
      "inputs": [
        {
          "internalType": "bytes",
          "name": "",
          "type": "bytes"
        }
      ],
      "name": "blackListSignature",
      "outputs": [
        {
          "internalType": "bool",
          "name": "",
          "type": "bool"
        }
      ],
      "stateMutability": "view",
      "type": "function"
    },
    {
      "inputs": [
        {
          "internalType": "uint256",
          "name": "_roundId",
          "type": "uint256"
        },
        {
          "internalType": "address",
          "name": "_paymentToken",
          "type": "address"
        },
        {
          "internalType": "uint256",
          "name": "_quantity",
          "type": "uint256"
        },
        {
          "internalType": "bytes",
          "name": "_signature",
          "type": "bytes"
        },
        {
          "internalType": "address",
          "name": "_referrer",
          "type": "address"
        },
        {
          "internalType": "uint256",
          "name": "createdAt",
          "type": "uint256"
        }
      ],
      "name": "buyNFTWithReferral",
      "outputs": [],
      "stateMutability": "nonpayable",
      "type": "function"
    },
    {
      "inputs": [
        {
          "internalType": "uint256",
          "name": "_startTime",
          "type": "uint256"
        },
        {
          "internalType": "uint256",
          "name": "_endTime",
          "type": "uint256"
        },
        {
          "internalType": "uint256",
          "name": "_maxSupply",
          "type": "uint256"
        },
        {
          "internalType": "uint256",
          "name": "_price",
          "type": "uint256"
        },
        {
          "internalType": "bool",
          "name": "_whitelistOnly",
          "type": "bool"
        },
        {
          "internalType": "uint256",
          "name": "_maxNFTPerWalletInRound",
          "type": "uint256"
        }
      ],
      "name": "createSaleRound",
      "outputs": [],
      "stateMutability": "nonpayable",
      "type": "function"
    },
    {
      "inputs": [],
      "name": "currentRoundId",
      "outputs": [
        {
          "internalType": "uint256",
          "name": "",
          "type": "uint256"
        }
      ],
      "stateMutability": "view",
      "type": "function"
    },
    {
      "inputs": [],
      "name": "eip712Domain",
      "outputs": [
        {
          "internalType": "bytes1",
          "name": "fields",
          "type": "bytes1"
        },
        {
          "internalType": "string",
          "name": "name",
          "type": "string"
        },
        {
          "internalType": "string",
          "name": "version",
          "type": "string"
        },
        {
          "internalType": "uint256",
          "name": "chainId",
          "type": "uint256"
        },
        {
          "internalType": "address",
          "name": "verifyingContract",
          "type": "address"
        },
        {
          "internalType": "bytes32",
          "name": "salt",
          "type": "bytes32"
        },
        {
          "internalType": "uint256[]",
          "name": "extensions",
          "type": "uint256[]"
        }
      ],
      "stateMutability": "view",
      "type": "function"
    },
    {
      "inputs": [
        {
          "internalType": "uint256",
          "name": "_roundId",
          "type": "uint256"
        }
      ],
      "name": "getRoundInfo",
      "outputs": [
        {
          "internalType": "uint256",
          "name": "id",
          "type": "uint256"
        },
        {
          "internalType": "uint256",
          "name": "startTime",
          "type": "uint256"
        },
        {
          "internalType": "uint256",
          "name": "endTime",
          "type": "uint256"
        },
        {
          "internalType": "uint256",
          "name": "maxSupply",
          "type": "uint256"
        },
        {
          "internalType": "uint256",
          "name": "price",
          "type": "uint256"
        },
        {
          "internalType": "bool",
          "name": "whitelistOnly",
          "type": "bool"
        },
        {
          "internalType": "uint256",
          "name": "totalMintedInRound",
          "type": "uint256"
        },
        {
          "internalType": "uint256",
          "name": "maxNFTPerWalletInRound",
          "type": "uint256"
        },
        {
          "internalType": "uint256",
          "name": "walletMinted",
          "type": "uint256"
        }
      ],
      "stateMutability": "view",
      "type": "function"
    },
    {
      "inputs": [
        {
          "internalType": "address",
          "name": "_userAddr",
          "type": "address"
        },
        {
          "components": [
            {
              "internalType": "address",
              "name": "referrer",
              "type": "address"
            },
            {
              "internalType": "uint256",
              "name": "createdAt",
              "type": "uint256"
            }
          ],
          "internalType": "struct NFTPresaleManager.ReferrerSignatureHashInfo",
          "name": "data",
          "type": "tuple"
        }
      ],
      "name": "hashSignature",
      "outputs": [
        {
          "internalType": "bytes32",
          "name": "",
          "type": "bytes32"
        }
      ],
      "stateMutability": "view",
      "type": "function"
    },
    {
      "inputs": [],
      "name": "maxNFTPerWallet",
      "outputs": [
        {
          "internalType": "uint256",
          "name": "",
          "type": "uint256"
        }
      ],
      "stateMutability": "view",
      "type": "function"
    },
    {
      "inputs": [],
      "name": "nftContract",
      "outputs": [
        {
          "internalType": "contract IERC721Mintable",
          "name": "",
          "type": "address"
        }
      ],
      "stateMutability": "view",
      "type": "function"
    },
    {
      "inputs": [],
      "name": "owner",
      "outputs": [
        {
          "internalType": "address",
          "name": "",
          "type": "address"
        }
      ],
      "stateMutability": "view",
      "type": "function"
    },
    {
      "inputs": [
        {
          "internalType": "address",
          "name": "account",
          "type": "address"
        }
      ],
      "name": "removeFromWhitelist",
      "outputs": [],
      "stateMutability": "nonpayable",
      "type": "function"
    },
    {
      "inputs": [],
      "name": "renounceOwnership",
      "outputs": [],
      "stateMutability": "nonpayable",
      "type": "function"
    },
    {
      "inputs": [
        {
          "internalType": "uint256",
          "name": "",
          "type": "uint256"
        }
      ],
      "name": "saleRounds",
      "outputs": [
        {
          "internalType": "uint256",
          "name": "id",
          "type": "uint256"
        },
        {
          "internalType": "uint256",
          "name": "startTime",
          "type": "uint256"
        },
        {
          "internalType": "uint256",
          "name": "endTime",
          "type": "uint256"
        },
        {
          "internalType": "uint256",
          "name": "maxSupply",
          "type": "uint256"
        },
        {
          "internalType": "uint256",
          "name": "price",
          "type": "uint256"
        },
        {
          "internalType": "bool",
          "name": "whitelistOnly",
          "type": "bool"
        },
        {
          "internalType": "uint256",
          "name": "totalMinted",
          "type": "uint256"
        },
        {
          "internalType": "uint256",
          "name": "maxNFTPerWalletInRound",
          "type": "uint256"
        }
      ],
      "stateMutability": "view",
      "type": "function"
    },
    {
      "inputs": [
        {
          "internalType": "uint256",
          "name": "_maxNFTPerWallet",
          "type": "uint256"
        }
      ],
      "name": "setMaxNFTPerWallet",
      "outputs": [],
      "stateMutability": "nonpayable",
      "type": "function"
    },
    {
      "inputs": [
        {
          "internalType": "uint256",
          "name": "_roundId",
          "type": "uint256"
        },
        {
          "internalType": "uint256",
          "name": "_maxNFTPerWallet",
          "type": "uint256"
        }
      ],
      "name": "setMaxNFTPerWallet",
      "outputs": [],
      "stateMutability": "nonpayable",
      "type": "function"
    },
    {
      "inputs": [
        {
          "internalType": "address",
          "name": "_token",
          "type": "address"
        },
        {
          "internalType": "bool",
          "name": "_accepted",
          "type": "bool"
        }
      ],
      "name": "setPaymentToken",
      "outputs": [],
      "stateMutability": "nonpayable",
      "type": "function"
    },
    {
      "inputs": [],
      "name": "totalMinted",
      "outputs": [
        {
          "internalType": "uint256",
          "name": "",
          "type": "uint256"
        }
      ],
      "stateMutability": "view",
      "type": "function"
    },
    {
      "inputs": [
        {
          "internalType": "address",
          "name": "newOwner",
          "type": "address"
        }
      ],
      "name": "transferOwnership",
      "outputs": [],
      "stateMutability": "nonpayable",
      "type": "function"
    },
    {
      "inputs": [
        {
          "internalType": "address",
          "name": "",
          "type": "address"
        }
      ],
      "name": "whitelisted",
      "outputs": [
        {
          "internalType": "bool",
          "name": "",
          "type": "bool"
        }
      ],
      "stateMutability": "view",
      "type": "function"
    },
    {
      "inputs": [
        {
          "internalType": "address",
          "name": "_token",
          "type": "address"
        }
      ],
      "name": "withdrawFunds",
      "outputs": [],
      "stateMutability": "nonpayable",
      "type": "function"
    }
  ],
  "bytecode": "0x6101606040523480156200001257600080fd5b506040516200270638038062002706833981016040819052620000359162000317565b604051806040016040528060078152602001664e465453616c6560c81b815250604051806040016040528060018152602001603160f81b81525062000089620000836200022a60201b60201c565b6200022e565b620000968260016200027e565b61012052620000a78160026200027e565b61014052815160208084019190912060e052815190820120610100524660a0526200013560e05161010051604080517f8b73c3c69bb8fe3d512ecc4cf759cc79239f7b179b0ffacaa9a75d522b39400f60208201529081019290925260608201524660808201523060a082015260009060c00160405160208183030381529060405280519060200120905090565b60805250503060c0526001600160a01b0383163b6200019b5760405162461bcd60e51b815260206004820152601c60248201527f496e76616c6964204e465420636f6e747261637420616464726573730000000060448201526064015b60405180910390fd5b60008211620001ed5760405162461bcd60e51b815260206004820152601a60248201527f496e76616c6964206d6178204e4654207065722077616c6c6574000000000000604482015260640162000192565b600380546001600160a01b039485166001600160a01b0319918216179091556006929092556000600555600480549190931691161790556200053e565b3390565b600080546001600160a01b038381166001600160a01b0319831681178455604051919092169283917f8be0079c531659141344cd1fd0a4f28419497f9722a3daafe3b4186f6b6457e09190a35050565b60006020835110156200029e576200029683620002b7565b9050620002b1565b81620002ab8482620003fd565b5060ff90505b92915050565b600080829050601f81511115620002e5578260405163305a27a960e01b8152600401620001929190620004c9565b8051620002f28262000519565b179392505050565b80516001600160a01b03811681146200031257600080fd5b919050565b6000806000606084860312156200032d57600080fd5b6200033884620002fa565b9250602084015191506200034f60408501620002fa565b90509250925092565b634e487b7160e01b600052604160045260246000fd5b600181811c908216806200038357607f821691505b602082108103620003a457634e487b7160e01b600052602260045260246000fd5b50919050565b601f821115620003f857600081815260208120601f850160051c81016020861015620003d35750805b601f850160051c820191505b81811015620003f457828155600101620003df565b5050505b505050565b81516001600160401b0381111562000419576200041962000358565b62000431816200042a84546200036e565b84620003aa565b602080601f831160018114620004695760008415620004505750858301515b600019600386901b1c1916600185901b178555620003f4565b600085815260208120601f198616915b828110156200049a5788860151825594840194600190910190840162000479565b5085821015620004b95787850151600019600388901b60f8161c191681555b5050505050600190811b01905550565b600060208083528351808285015260005b81811015620004f857858101830151858201604001528201620004da565b506000604082860101526040601f19601f8301168501019250505092915050565b80516020808301519190811015620003a45760001960209190910360031b1b16919050565b60805160a05160c05160e05161010051610120516101405161216d620005996000396000610705015260006106da015260006118fa015260006118d20152600061182d0152600061185701526000611881015261216d6000f3fe608060405234801561001057600080fd5b50600436106101735760003560e01c80639e115f75116100de578063d56d229d11610097578063e6b6a7c811610071578063e6b6a7c814610467578063f2fde38b1461047a578063f497994b1461048d578063fc6f9468146104a057600080fd5b8063d56d229d1461041e578063d936547e14610431578063e43252d71461045457600080fd5b80639e115f75146103cb578063a2309ff8146103de578063a365f2a5146103e7578063a6177139146103ef578063b5a3726014610402578063c7c5a8c01461041557600080fd5b806384b0196e1161013057806384b0196e146102a057806388c3ffb0146102bb5780638ab1d681146103695780638da5cb5b1461037c5780639635c40a146103a15780639cbe5efd146103b457600080fd5b806312f8103814610178578063430884cf146101bb57806345199ce1146101d0578063484bb2441461026257806368742da614610285578063715018a614610298575b600080fd5b6101a6610186366004611c6e565b8051602081830181018051600b8252928201919093012091525460ff1681565b60405190151581526020015b60405180910390f35b6101ce6101c9366004611ccd565b6104b3565b005b6102256101de366004611d04565b600a60205260009081526040902080546001820154600283015460038401546004850154600586015460068701546007909701549596949593949293919260ff9091169188565b6040805198895260208901979097529587019490945260608601929092526080850152151560a084015260c083015260e0820152610100016101b2565b6101a6610270366004611d1d565b60086020526000908152604090205460ff1681565b6101ce610293366004611d1d565b61056e565b6101ce6106b8565b6102a86106cc565b6040516101b29796959493929190611d88565b6103236102c9366004611d04565b6000908152600a6020908152604080832080546001820154600283015460038401546004850154600586015460068701546007880154338c52600890980190995296909820549398929791969095919460ff909216939092565b60408051998a5260208a01989098529688019590955260608701939093526080860191909152151560a085015260c084015260e0830152610100820152610120016101b2565b6101ce610377366004611d1d565b610755565b6000546001600160a01b03165b6040516001600160a01b0390911681526020016101b2565b6101ce6103af366004611e1e565b6107a6565b6103bd60055481565b6040519081526020016101b2565b6103bd6103d9366004611e98565b610eb7565b6103bd60075481565b6103bd600581565b6101ce6103fd366004611f11565b610f16565b6101ce610410366004611d04565b610ff1565b6103bd60065481565b600354610389906001600160a01b031681565b6101a661043f366004611d1d565b60096020526000908152604090205460ff1681565b6101ce610462366004611d1d565b61104e565b6101ce610475366004611f86565b6110a2565b6101ce610488366004611d1d565b611272565b6101ce61049b366004611fdb565b6112eb565b600454610389906001600160a01b031681565b6104bb611398565b6001600160a01b0382163b61050f5760405162461bcd60e51b8152602060048201526015602482015274496e76616c696420746f6b656e206164647265737360581b60448201526064015b60405180910390fd5b6001600160a01b038216600081815260086020908152604091829020805460ff191685151590811790915591519182527f19c6e2fbd27c3204efb106f0081d2d7ffaf44da224ca04fbc0d8a262ba40f555910160405180910390a25050565b610576611398565b6001600160a01b038116600090815260086020526040902054819060ff166105e05760405162461bcd60e51b815260206004820152601a60248201527f5061796d656e7420746f6b656e206e6f742061636365707465640000000000006044820152606401610506565b6040516370a0823160e01b815230600482015282906000906001600160a01b038316906370a0823190602401602060405180830381865afa158015610629573d6000803e3d6000fd5b505050506040513d601f19601f8201168201806040525081019061064d9190611ffd565b9050600081116106965760405162461bcd60e51b81526020600482015260146024820152734e6f2066756e647320746f20776974686472617760601b6044820152606401610506565b6106b2846106ac6000546001600160a01b031690565b836113f2565b50505050565b6106c0611398565b6106ca600061150d565b565b6000606080828080836107007f0000000000000000000000000000000000000000000000000000000000000000600161155d565b61072b7f0000000000000000000000000000000000000000000000000000000000000000600261155d565b60408051600080825260208201909252600f60f81b9b939a50919850469750309650945092509050565b61075d611398565b6001600160a01b038116600081815260096020526040808220805460ff19169055517fcdd2e9b91a56913d370075169cefa1602ba36be5301664f752192bb1709df7579190a250565b6003546001600160a01b03166107f55760405162461bcd60e51b81526020600482015260146024820152731391950818dbdb9d1c9858dd081b9bdd081cd95d60621b6044820152606401610506565b6001600160a01b038516600090815260086020526040902054859060ff1661085f5760405162461bcd60e51b815260206004820152601a60248201527f5061796d656e7420746f6b656e206e6f742061636365707465640000000000006044820152606401610506565b83600b816040516108709190612016565b9081526040519081900360200190205460ff16156108d05760405162461bcd60e51b815260206004820181905260248201527f4f6e6c79207369676e617475726520686173206e6f74206265656e20757365646044820152606401610506565b604080518082019091526001600160a01b03851681526020810184905260006108f98288611608565b90506001600b8860405161090d9190612016565b908152604051908190036020019020805491151560ff199092169190911790556004546001600160a01b038281169116146109825760405162461bcd60e51b8152602060048201526015602482015274496e76616c696420696e707574206164647265737360581b6044820152606401610506565b61098e8561012c612048565b42106109d35760405162461bcd60e51b815260206004820152601460248201527314da59db985d1d5c99481a5cc8195e1c1a5c995960621b6044820152606401610506565b6001600160a01b038616610a295760405162461bcd60e51b815260206004820152601860248201527f496e76616c6964207265666572726572206164647265737300000000000000006044820152606401610506565b60008a8152600a602052604090208054610a755760405162461bcd60e51b815260206004820152600d60248201526c125b9d985b1a59081c9bdd5b99609a1b6044820152606401610506565b8060010154421015610abd5760405162461bcd60e51b8152602060048201526011602482015270149bdd5b99081b9bdd081cdd185c9d1959607a1b6044820152606401610506565b8060020154421115610aff5760405162461bcd60e51b815260206004820152600b60248201526a149bdd5b9908195b99195960aa1b6044820152606401610506565b8060030154816006015410610b565760405162461bcd60e51b815260206004820152601860248201527f526f756e64206d617820737570706c79207265616368656400000000000000006044820152606401610506565b600581015460ff1615610bb4573360009081526009602052604090205460ff16610bb45760405162461bcd60e51b815260206004820152600f60248201526e139bdd081dda1a5d195b1a5cdd1959608a1b6044820152606401610506565b6006546003546040516370a0823160e01b81523360048201528b916001600160a01b0316906370a0823190602401602060405180830381865afa158015610bff573d6000803e3d6000fd5b505050506040513d601f19601f82011682018060405250810190610c239190611ffd565b610c2d9190612048565b1115610c8a5760405162461bcd60e51b815260206004820152602660248201527f576f756c642065786365656420676c6f62616c206d6178204e465420706572206044820152651dd85b1b195d60d21b6064820152608401610506565b6007810154336000908152600883016020526040902054610cac908b90612048565b1115610d085760405162461bcd60e51b815260206004820152602560248201527f576f756c642065786365656420726f756e64206d6178204e4654207065722077604482015264185b1b195d60da1b6064820152608401610506565b6000898260040154610d1a919061205b565b905060006064610d2b60058461205b565b610d359190612072565b9050610d438c333085611660565b610d4e8c8a836113f2565b60005b8b811015610e675760006007546001610d6a9190612048565b600780549192506000610d7c83612094565b9091555050600685018054906000610d9383612094565b90915550506003546040516340c10f1960e01b8152336004820152602481018390526001600160a01b03909116906340c10f1990604401600060405180830381600087803b158015610de457600080fd5b505af1158015610df8573d6000803e3d6000fd5b50503360009081526008880160205260408120805493509150610e1a83612094565b909155505060405181815233907f7f8aed29394d49180b299699236f142fbd3a78f6d1464929dd17e87b73ebc8d29060200160405180910390a25080610e5f81612094565b915050610d51565b5060405181815233906001600160a01b038b16907f86ddab457291316e0f5496737e5ca67c4037234c32c3be04c48ae96186893a7b9060200160405180910390a350505050505050505050505050565b604080516001600160a01b0380851660208084019190915230938301939093528351166060820152908201516080820152600090610f0d9060a00160405160208183030381529060405280519060200120611790565b90505b92915050565b610f1e611398565b60005b81811015610fec57600160096000858585818110610f4157610f416120ad565b9050602002016020810190610f569190611d1d565b6001600160a01b031681526020810191909152604001600020805460ff1916911515919091179055828282818110610f9057610f906120ad565b9050602002016020810190610fa59190611d1d565b6001600160a01b03167faab7954e9d246b167ef88aeddad35209ca2489d95a8aeb59e288d9b19fae5a5460405160405180910390a280610fe481612094565b915050610f21565b505050565b610ff9611398565b600081116110495760405162461bcd60e51b815260206004820152601a60248201527f496e76616c6964206d6178204e4654207065722077616c6c65740000000000006044820152606401610506565b600655565b611056611398565b6001600160a01b038116600081815260096020526040808220805460ff19166001179055517faab7954e9d246b167ef88aeddad35209ca2489d95a8aeb59e288d9b19fae5a549190a250565b6110aa611398565b8486106110f95760405162461bcd60e51b815260206004820152601860248201527f5374617274206d757374206265206265666f726520656e6400000000000000006044820152606401610506565b6000841161113e5760405162461bcd60e51b8152602060048201526012602482015271496e76616c6964206d617820737570706c7960701b6044820152606401610506565b6000831161117e5760405162461bcd60e51b815260206004820152600d60248201526c496e76616c696420707269636560981b6044820152606401610506565b600081116111da5760405162461bcd60e51b815260206004820152602360248201527f496e76616c6964206d6178204e4654207065722077616c6c657420696e20726f6044820152621d5b9960ea1b6064820152608401610506565b600580549060006111ea83612094565b9091555050600580546000818152600a6020526040808220928355600183018a9055600283018990556003830188905560048301879055828401805460ff19168715151790556006830182905560078301859055925492519192917fa678db96b3cef44cebd44ad25b4a0518d5fe891d2b92341f31adc288b84a91379190a250505050505050565b61127a611398565b6001600160a01b0381166112df5760405162461bcd60e51b815260206004820152602660248201527f4f776e61626c653a206e6577206f776e657220697320746865207a65726f206160448201526564647265737360d01b6064820152608401610506565b6112e88161150d565b50565b6112f3611398565b600081116113435760405162461bcd60e51b815260206004820152601a60248201527f496e76616c6964206d6178204e4654207065722077616c6c65740000000000006044820152606401610506565b6000828152600a6020908152604091829020600781018490558251858152918201849052917f9661a815c7db8b3f4e48871cf7d74e5c190a544bfc3eee36ab2451f2dc3d2503910160405180910390a1505050565b6000546001600160a01b031633146106ca5760405162461bcd60e51b815260206004820181905260248201527f4f776e61626c653a2063616c6c6572206973206e6f7420746865206f776e65726044820152606401610506565b604080516001600160a01b038481166024830152604480830185905283518084039091018152606490920183526020820180516001600160e01b031663a9059cbb60e01b179052915160009283929087169161144e9190612016565b6000604051808303816000865af19150503d806000811461148b576040519150601f19603f3d011682016040523d82523d6000602084013e611490565b606091505b50915091508180156114ba5750805115806114ba5750808060200190518101906114ba91906120c3565b6115065760405162461bcd60e51b815260206004820152601f60248201527f5472616e7366657248656c7065723a205452414e534645525f4641494c4544006044820152606401610506565b5050505050565b600080546001600160a01b038381166001600160a01b0319831681178455604051919092169283917f8be0079c531659141344cd1fd0a4f28419497f9722a3daafe3b4186f6b6457e09190a35050565b606060ff831461157757611570836117bd565b9050610f10565b818054611583906120e7565b80601f01602080910402602001604051908101604052809291908181526020018280546115af906120e7565b80156115fc5780601f106115d1576101008083540402835291602001916115fc565b820191906000526020600020905b8154815290600101906020018083116115df57829003601f168201915b50505050509050610f10565b6000806116153385610eb7565b905061165883611652837f19457468657265756d205369676e6564204d6573736167653a0a3332000000006000908152601c91909152603c902090565b906117fc565b949350505050565b604080516001600160a01b0385811660248301528481166044830152606480830185905283518084039091018152608490920183526020820180516001600160e01b03166323b872dd60e01b17905291516000928392908816916116c49190612016565b6000604051808303816000865af19150503d8060008114611701576040519150601f19603f3d011682016040523d82523d6000602084013e611706565b606091505b509150915081801561173057508051158061173057508080602001905181019061173091906120c3565b6117885760405162461bcd60e51b8152602060048201526024808201527f5472616e7366657248656c7065723a205452414e534645525f46524f4d5f46416044820152631253115160e21b6064820152608401610506565b505050505050565b6000610f1061179d611820565b8360405161190160f01b8152600281019290925260228201526042902090565b606060006117ca83611950565b604080516020808252818301909252919250600091906020820181803683375050509182525060208101929092525090565b600080600061180b8585611978565b91509150611818816119bd565b509392505050565b6000306001600160a01b037f00000000000000000000000000000000000000000000000000000000000000001614801561187957507f000000000000000000000000000000000000000000000000000000000000000046145b156118a357507f000000000000000000000000000000000000000000000000000000000000000090565b61194b604080517f8b73c3c69bb8fe3d512ecc4cf759cc79239f7b179b0ffacaa9a75d522b39400f60208201527f0000000000000000000000000000000000000000000000000000000000000000918101919091527f000000000000000000000000000000000000000000000000000000000000000060608201524660808201523060a082015260009060c00160405160208183030381529060405280519060200120905090565b905090565b600060ff8216601f811115610f1057604051632cd44ac360e21b815260040160405180910390fd5b60008082516041036119ae5760208301516040840151606085015160001a6119a287828585611b07565b945094505050506119b6565b506000905060025b9250929050565b60008160048111156119d1576119d1612121565b036119d95750565b60018160048111156119ed576119ed612121565b03611a3a5760405162461bcd60e51b815260206004820152601860248201527f45434453413a20696e76616c6964207369676e617475726500000000000000006044820152606401610506565b6002816004811115611a4e57611a4e612121565b03611a9b5760405162461bcd60e51b815260206004820152601f60248201527f45434453413a20696e76616c6964207369676e6174757265206c656e677468006044820152606401610506565b6003816004811115611aaf57611aaf612121565b036112e85760405162461bcd60e51b815260206004820152602260248201527f45434453413a20696e76616c6964207369676e6174757265202773272076616c604482015261756560f01b6064820152608401610506565b6000807f7fffffffffffffffffffffffffffffff5d576e7357a4501ddfe92f46681b20a0831115611b3e5750600090506003611bc2565b6040805160008082526020820180845289905260ff881692820192909252606081018690526080810185905260019060a0016020604051602081039080840390855afa158015611b92573d6000803e3d6000fd5b5050604051601f1901519150506001600160a01b038116611bbb57600060019250925050611bc2565b9150600090505b94509492505050565b634e487b7160e01b600052604160045260246000fd5b600082601f830112611bf257600080fd5b813567ffffffffffffffff80821115611c0d57611c0d611bcb565b604051601f8301601f19908116603f01168101908282118183101715611c3557611c35611bcb565b81604052838152866020858801011115611c4e57600080fd5b836020870160208301376000602085830101528094505050505092915050565b600060208284031215611c8057600080fd5b813567ffffffffffffffff811115611c9757600080fd5b61165884828501611be1565b80356001600160a01b0381168114611cba57600080fd5b919050565b80151581146112e857600080fd5b60008060408385031215611ce057600080fd5b611ce983611ca3565b91506020830135611cf981611cbf565b809150509250929050565b600060208284031215611d1657600080fd5b5035919050565b600060208284031215611d2f57600080fd5b610f0d82611ca3565b60005b83811015611d53578181015183820152602001611d3b565b50506000910152565b60008151808452611d74816020860160208601611d38565b601f01601f19169290920160200192915050565b60ff60f81b881681526000602060e081840152611da860e084018a611d5c565b8381036040850152611dba818a611d5c565b606085018990526001600160a01b038816608086015260a0850187905284810360c0860152855180825283870192509083019060005b81811015611e0c57835183529284019291840191600101611df0565b50909c9b505050505050505050505050565b60008060008060008060c08789031215611e3757600080fd5b86359550611e4760208801611ca3565b945060408701359350606087013567ffffffffffffffff811115611e6a57600080fd5b611e7689828a01611be1565b935050611e8560808801611ca3565b915060a087013590509295509295509295565b6000808284036060811215611eac57600080fd5b611eb584611ca3565b92506040601f1982011215611ec957600080fd5b506040516040810181811067ffffffffffffffff82111715611eed57611eed611bcb565b604052611efc60208501611ca3565b81526040939093013560208401525092909150565b60008060208385031215611f2457600080fd5b823567ffffffffffffffff80821115611f3c57600080fd5b818501915085601f830112611f5057600080fd5b813581811115611f5f57600080fd5b8660208260051b8501011115611f7457600080fd5b60209290920196919550909350505050565b60008060008060008060c08789031215611f9f57600080fd5b863595506020870135945060408701359350606087013592506080870135611fc681611cbf565b8092505060a087013590509295509295509295565b60008060408385031215611fee57600080fd5b50508035926020909101359150565b60006020828403121561200f57600080fd5b5051919050565b60008251612028818460208701611d38565b9190910192915050565b634e487b7160e01b600052601160045260246000fd5b80820180821115610f1057610f10612032565b8082028115828204841417610f1057610f10612032565b60008261208f57634e487b7160e01b600052601260045260246000fd5b500490565b6000600182016120a6576120a6612032565b5060010190565b634e487b7160e01b600052603260045260246000fd5b6000602082840312156120d557600080fd5b81516120e081611cbf565b9392505050565b600181811c908216806120fb57607f821691505b60208210810361211b57634e487b7160e01b600052602260045260246000fd5b50919050565b634e487b7160e01b600052602160045260246000fdfea2646970667358221220a8bade5821be42a35426e5185fece3bc1ad47c137eecced88d5710aa977be63464736f6c63430008130033",
  "linkReferences": {},
  "deployedLinkReferences": {}
}